{
  "_format": "hh-sol-artifact-1",
  "contractName": "Escrow",
  "sourceName": "contracts/Escrow.sol",
  "abi": [
    {
      "inputs": [
        {
          "internalType": "address payable",
          "name": "_buyer",
          "type": "address"
        },
        {
          "internalType": "address payable",
          "name": "_seller",
          "type": "address"
        }
      ],
      "name": "SetAddress",
      "outputs": [],
      "stateMutability": "nonpayable",
      "type": "function"
    },
    {
      "inputs": [],
      "name": "buyer",
      "outputs": [
        {
          "internalType": "address payable",
          "name": "",
          "type": "address"
        }
      ],
      "stateMutability": "view",
      "type": "function"
    },
    {
      "inputs": [],
      "name": "depositFunds",
      "outputs": [],
      "stateMutability": "payable",
      "type": "function"
    },
    {
      "inputs": [],
      "name": "getBalance",
      "outputs": [
        {
          "internalType": "uint256",
          "name": "",
          "type": "uint256"
        }
      ],
      "stateMutability": "view",
      "type": "function"
    },
    {
      "inputs": [],
      "name": "releaseFunds",
      "outputs": [],
      "stateMutability": "nonpayable",
      "type": "function"
    },
    {
      "inputs": [],
      "name": "seller",
      "outputs": [
        {
          "internalType": "address payable",
          "name": "",
          "type": "address"
        }
      ],
      "stateMutability": "view",
      "type": "function"
    },
    {
      "stateMutability": "payable",
      "type": "receive"
    }
  ],
  "bytecode": "0x608060405234801561001057600080fd5b506107bc806100206000396000f3fe6080604052600436106100595760003560e01c806308551a531461006557806312065fe01461009057806369d89575146100bb5780637150d8ae146100d2578063e2c41dbc146100fd578063f8ccd6741461010757610060565b3661006057005b600080fd5b34801561007157600080fd5b5061007a610130565b604051610087919061047c565b60405180910390f35b34801561009c57600080fd5b506100a5610156565b6040516100b291906104b0565b60405180910390f35b3480156100c757600080fd5b506100d0610160565b005b3480156100de57600080fd5b506100e76102a6565b6040516100f4919061047c565b60405180910390f35b6101056102ca565b005b34801561011357600080fd5b5061012e600480360381019061012991906104fc565b6103b6565b005b600160009054906101000a900473ffffffffffffffffffffffffffffffffffffffff1681565b6000600254905090565b60008054906101000a900473ffffffffffffffffffffffffffffffffffffffff1673ffffffffffffffffffffffffffffffffffffffff163373ffffffffffffffffffffffffffffffffffffffff16146101ee576040517f08c379a00000000000000000000000000000000000000000000000000000000081526004016101e590610599565b60405180910390fd5b600060025411610233576040517f08c379a000000000000000000000000000000000000000000000000000000000815260040161022a90610605565b60405180910390fd5b60006002549050600160009054906101000a900473ffffffffffffffffffffffffffffffffffffffff1673ffffffffffffffffffffffffffffffffffffffff166108fc829081150290604051600060405180830381858888f193505050501580156102a2573d6000803e3d6000fd5b5050565b60008054906101000a900473ffffffffffffffffffffffffffffffffffffffff1681565b60008054906101000a900473ffffffffffffffffffffffffffffffffffffffff1673ffffffffffffffffffffffffffffffffffffffff163373ffffffffffffffffffffffffffffffffffffffff1614610358576040517f08c379a000000000000000000000000000000000000000000000000000000000815260040161034f90610671565b60405180910390fd5b6000341161039b576040517f08c379a000000000000000000000000000000000000000000000000000000000815260040161039290610703565b60405180910390fd5b34600260008282546103ad9190610752565b92505081905550565b816000806101000a81548173ffffffffffffffffffffffffffffffffffffffff021916908373ffffffffffffffffffffffffffffffffffffffff16021790555080600160006101000a81548173ffffffffffffffffffffffffffffffffffffffff021916908373ffffffffffffffffffffffffffffffffffffffff1602179055505050565b600073ffffffffffffffffffffffffffffffffffffffff82169050919050565b60006104668261043b565b9050919050565b6104768161045b565b82525050565b6000602082019050610491600083018461046d565b92915050565b6000819050919050565b6104aa81610497565b82525050565b60006020820190506104c560008301846104a1565b92915050565b600080fd5b6104d98161045b565b81146104e457600080fd5b50565b6000813590506104f6816104d0565b92915050565b60008060408385031215610513576105126104cb565b5b6000610521858286016104e7565b9250506020610532858286016104e7565b9150509250929050565b600082825260208201905092915050565b7f4f6e6c792062757965722063616e2072656c65617365207468652066756e6473600082015250565b600061058360208361053c565b915061058e8261054d565b602082019050919050565b600060208201905081810360008301526105b281610576565b9050919050565b7f4e6f2066756e647320746f2072656c6561736500000000000000000000000000600082015250565b60006105ef60138361053c565b91506105fa826105b9565b602082019050919050565b6000602082019050818103600083015261061e816105e2565b9050919050565b7f4f6e6c792062757965722063616e2073656e642074686520616d6f756e740000600082015250565b600061065b601e8361053c565b915061066682610625565b602082019050919050565b6000602082019050818103600083015261068a8161064e565b9050919050565b7f616d6f756e742073686f756c642062652067726561746572207468616e207a6560008201527f726f000000000000000000000000000000000000000000000000000000000000602082015250565b60006106ed60228361053c565b91506106f882610691565b604082019050919050565b6000602082019050818103600083015261071c816106e0565b9050919050565b7f4e487b7100000000000000000000000000000000000000000000000000000000600052601160045260246000fd5b600061075d82610497565b915061076883610497565b92508282019050808211156107805761077f610723565b5b9291505056fea26469706673582212203370559ec6cbfe5bbf16a00888d7b0b689b3a82070d571bb3f8828d091918a2364736f6c63430008180033",
  "linkReferences": {},
  "deployedLinkReferences": {}
}